:020000040000FA
:100000000C9462000C948A000C948A000C948A0070
:100010000C948A000C948A000C948A000C948A0038
:100020000C948A000C948A000C948A000C948A0028
:100030000C948A000C948A000C948A000C948A0018
:100040000C9418020C948A000C9488020C9462029E
:100050000C948A000C948A000C948A000C948A00F8
:100060000C948A000C948A000000000023002600F3
:10007000290000000008000201000003040700003E
:1000800000000000000000000000250028002B00F8
:1000900000000000240027002A00040404040404D3
:1000A0000404020202020202030303030303010227
:1000B00004081020408001020408102001020408F6
:1000C0001020670411241FBECFEFD8E0DEBFCDBFE4
:1000D00011E0A0E0B1E0ECE7F9E002C005900D927C
:1000E000A631B107D9F721E0A6E1B1E001C01D9228
:1000F000A43CB207E1F710E0C2E6D0E004C02197CB
:10010000FE010E94B604C136D107C9F70E94BA02A7
:100110000C94BC040C940000833081F028F48130EE
:1001200099F08230A9F008958730A9F08830C9F09D
:100130008430B1F4809180008F7D03C08091800075
:100140008F7780938000089584B58F7784BD08955C
:1001500084B58F7DFBCF8091B0008F778093B00006
:1001600008958091B0008F7DF9CFCF93DF9390E019
:10017000FC01E255FF4F249186569F4FFC0184916C
:100180008823D1F090E0880F991FFC01E057FF4FC2
:10019000A591B491FC01EA57FF4FC591D49162300B
:1001A00071F49FB7F8943C91822F809583238C93B0
:1001B000E8812E2B28839FBFDF91CF9108958FB7C1
:1001C000F894EC912E2B2C938FBFF6CF3FB7F89479
:1001D0008091C0019091C101A091C201B091C30171
:1001E00026B5A89B05C02F3F19F00196A11DB11D92
:1001F0003FBFBA2FA92F982F8827BC01CD01620FCE
:10020000711D811D911D42E0660F771F881F991F88
:100210004A95D1F70895AF92BF92CF92DF92EF92B5
:10022000FF920F931F93CF93DF936C017B018B01A0
:10023000040F151FEB015E01AE18BF08C017D107F0
:1002400059F06991D601ED91FC910190F081E02D7A
:10025000C6010995892B79F7C501DF91CF911F91CF
:100260000F91FF90EF90DF90CF90BF90AF900895E7
:10027000FC01538D448D252F30E0842F90E0821BAC
:10028000930B541710F0CF96089501970895FC0131
:10029000918D828D981761F0A28DAE0FBF2FB11D89
:1002A0005D968C91928D9F5F9F73928F90E00895E1
:1002B0008FEF9FEF0895FC01918D828D981731F09B
:1002C000828DE80FF11D858D90E008958FEF9FEFEF
:1002D0000895FC01918D228D892F90E0805C9F4FC5
:1002E000821B91098F739927089586E191E00E94FE
:1002F000690121E0892B09F420E0822F089580E034
:1003000090E0892B29F00E94750181110C94000066
:100310000895FC01A48DA80FB92FB11DA35ABF4F9A
:100320002C91848D90E001968F739927848FA689F4
:10033000B7892C93A089B1898C91837080648C9348
:10034000938D848D981306C00288F389E02D8081F7
:100350008F7D80830895EF92FF920F931F93CF9329
:10036000DF93EC0181E0888F9B8D8C8D98131AC0F0
:10037000E889F989808185FF15C09FB7F894EE89D7
:10038000FF896083E889F989808183708064808334
:100390009FBF81E090E0DF91CF911F910F91FF907F
:1003A000EF900895F62E0B8D10E00F5F1F4F0F7327
:1003B0001127E02E8C8D8E110CC00FB607FCFACFE2
:1003C000E889F989808185FFF5CFCE010E948901F6
:1003D000F1CFEB8DEC0FFD2FF11DE35AFF4FF082B3
:1003E0009FB7F8940B8FEA89FB8980818062CFCF19
:1003F000CF93DF93EC01888D8823B9F0AA89BB895C
:10040000E889F9898C9185FD03C0808186FD0DC046
:100410000FB607FCF7CF8C9185FFF2CF808185FF67
:10042000EDCFCE010E948901E9CFDF91CF910895F0
:100430001F920F920FB60F9211242F933F938F9319
:100440009F93AF93BF938091BC019091BD01A09108
:10045000BE01B091BF013091BB0123E0230F2D37C6
:1004600058F50196A11DB11D2093BB018093BC01DD
:100470009093BD01A093BE01B093BF018091C001D4
:100480009091C101A091C201B091C3010196A11D3B
:10049000B11D8093C0019093C101A093C201B0939C
:1004A000C301BF91AF919F918F913F912F910F9079
:1004B0000FBE0F901F90189526E8230F0296A11DDE
:1004C000B11DD2CF1F920F920FB60F9211242F930E
:1004D0003F934F935F936F937F938F939F93AF93CC
:1004E000BF93EF93FF9386E191E00E948901FF9112
:1004F000EF91BF91AF919F918F917F916F915F919C
:100500004F913F912F910F900FBE0F901F90189514
:100510001F920F920FB60F9211242F938F939F93D8
:10052000EF93FF93E0912601F09127018081E09104
:100530002C01F0912D0182FD1BC0908180912F0133
:100540008F5F8F7320913001821741F0E0912F016E
:10055000F0E0EA5EFE4F958F80932F01FF91EF91BF
:100560009F918F912F910F900FBE0F901F90189514
:100570008081F4CFCF93DF93CDB7DEB7A1970FB6CD
:10058000F894DEBF0FBECDBF789484B5826084BD81
:1005900084B5816084BD85B5826085BD85B5816087
:1005A00085BD80916E00816080936E001092810005
:1005B00080918100826080938100809181008160C0
:1005C0008093810080918000816080938000809181
:1005D000B10084608093B1008091B000816080930D
:1005E000B00080917A00846080937A0080917A00D4
:1005F000826080937A0080917A00816080937A0093
:1006000080917A00806880937A001092C10062E045
:1006100082E00E94B50061E08DE00E94B50061E0DB
:100620008EE00E94B500E0912601F091270182E062
:100630008083E0912201F09123011082E091240156
:10064000F09125018FEC808310922E01E0912A0118
:10065000F0912B0186E08083E0912801F09129013F
:10066000808180618083E0912801F091290180815F
:1006700088608083E0912801F09129018081806861
:100680008083E0912801F091290180818F7D808312
:100690002FB7F8948091BC019091BD01A091BE014B
:1006A000B091BF012FBF8093B3019093B401A09389
:1006B000B501B093B6013FE7232E30E0332E4AE078
:1006C000442E512C612C712C20E420937C008091CD
:1006D0007A00806480937A0080917A0086FDFCCF56
:1006E0008091780090917900813293400CF474C02D
:1006F0008091B7019091B801A091B901B091BA0170
:100700000196A11DB11D8093B7019093B801A093EC
:10071000B901B093BA01F1018491EBEBF0E01491CF
:10072000E7EAF0E00491002309F4CCC081110E94B3
:100730008C00E02FF0E0EE0FFF1FE859FF4FA5916E
:10074000B4918C91182391E080E009F490E0092F96
:10075000182FF1018491EBEBF0E0E490E7EAF0E090
:10076000F490FF20A9F081110E948C00EF2DF0E0A1
:10077000EE0FFF1FEA57FF4FA591B4918FB7F89482
:100780009C91012B09F4A1C0E094E922EC928FBF67
:100790000E94E6004B015C0184E1C82ED12CE12CC3
:1007A000F12C0E94E600681979098A099B09683EC4
:1007B000734081059105A8F3F1E0CF1AD108E10853
:1007C000F10828EE820E23E0921EA11CB11CC11478
:1007D000D104E104F10429F72FB7F8948091BC010A
:1007E0009091BD01A091BE01B091BF012FBF40917A
:1007F000B3015091B4016091B5017091B601841BB1
:10080000950BA60BB70B893E9340A105B10508F4E3
:100810004CC02091B7013091B8014091B90150917D
:10082000BA0119A28E010F5D1F4FCA01B901A301C0
:1008300092010E949404605DF80162938F0121157A
:1008400031054105510589F7309761F0019000208D
:10085000E9F73197AF01401B510BB80186E191E0F8
:100860000E940B0142E050E062E171E086E191E01C
:100870000E940B011092B7011092B8011092B901B9
:100880001092BA012FB7F8948091BC019091BD01EC
:10089000A091BE01B091BF012FBF8093B30190938F
:1008A000B401A093B501B093B60180E090E0892B2C
:1008B00009F40ACF0E947501882309F405CF0E942C
:1008C000000002CF10E000E044CFE92A5FCFE6E16C
:1008D000F1E01382128288EE93E0A0E0B0E084831E
:1008E0009583A683B78384E091E09183808385EC30
:1008F00090E09587848784EC90E09787868780ECEA
:1009000090E0918B808B81EC90E0938B828B82ECDA
:1009100090E0958B848B86EC90E0978B868B118E84
:10092000128E138E148E0895A1E21A2EAA1BBB1BE1
:10093000FD010DC0AA1FBB1FEE1FFF1FA217B307AB
:10094000E407F50720F0A21BB30BE40BF50B661FC1
:10095000771F881F991F1A9469F760957095809585
:1009600090959B01AC01BD01CF010895EE0FFF1FD3
:100970000590F491E02D0994F894FFCF0000000059
:10098000AB010B013801F801690147015B010D0A58
:02099000000065
:107E0000112484B714BE81FFF0D085E080938100F7
:107E100082E08093C00088E18093C10086E0809377
:107E2000C20080E18093C4008EE0C9D0259A86E02C
:107E300020E33CEF91E0309385002093840096BBD3
:107E4000B09BFECF1D9AA8958150A9F7CC24DD24C4
:107E500088248394B5E0AB2EA1E19A2EF3E0BF2EE7
:107E6000A2D0813461F49FD0082FAFD0023811F036
:107E7000013811F484E001C083E08DD089C08234E0
:107E800011F484E103C0853419F485E0A6D080C0E4
:107E9000853579F488D0E82EFF2485D0082F10E0AE
:107EA000102F00270E291F29000F111F8ED06801E7
:107EB0006FC0863521F484E090D080E0DECF843638
:107EC00009F040C070D06FD0082F6DD080E0C81688
:107ED00080E7D80618F4F601B7BEE895C0E0D1E017
:107EE00062D089930C17E1F7F0E0CF16F0E7DF06D8
:107EF00018F0F601B7BEE89568D007B600FCFDCFD4
:107F0000A601A0E0B1E02C9130E011968C91119780
:107F100090E0982F8827822B932B1296FA010C0160
:107F200087BEE89511244E5F5F4FF1E0A038BF0790
:107F300051F7F601A7BEE89507B600FCFDCF97BE46
:107F4000E89526C08437B1F42ED02DD0F82E2BD052
:107F50003CD0F601EF2C8F010F5F1F4F84911BD097
:107F6000EA94F801C1F70894C11CD11CFA94CF0C13
:107F7000D11C0EC0853739F428D08EE10CD085E9AC
:107F80000AD08FE07ACF813511F488E018D01DD067
:107F900080E101D065CF982F8091C00085FFFCCF94
:107FA0009093C60008958091C00087FFFCCF809118
:107FB000C00084FD01C0A8958091C6000895E0E648
:107FC000F0E098E1908380830895EDDF803219F02E
:107FD00088E0F5DFFFCF84E1DECF1F93182FE3DFCA
:107FE0001150E9F7F2DF1F91089580E0E8DFEE27F6
:047FF000FF270994CA
:027FFE00040479
:00000001FF
